:020000040800F2
:100000000000012049230008550400085704000897
:10001000590400085B0400085D04000800000000AB
:100020000000000000000000000000005F04000865
:100030006104000800000000630400086504000873
:1000400099230008992300089923000899230008A0
:100050009923000899230008992300089923000890
:100060009923000899230008992300089923000880
:100070009923000899230008992300089923000870
:100080009923000899230008992300089923000860
:100090009923000899230008992300089923000850
:1000A0009923000899230008992300089923000840
:1000B00099230008000000000000000099230008B8
:1000C00099230008000000000000000099230008A8
:1000D0000000000099230008992300080000000098
:1000E0009923000899230008000000000000000088
:1000F0000000000000000000000000000000000000
:10010000000000000000000000000000992300082B
:100110000000000000000000992300089923000857
:1001200099230008992300089923000899230008BF
:1001300099230008000000000000000000000000FB
:10014000992300089923000899230008992300089F
:10015000992300089923000899230008992300088F
:100160009923000899230008992300080000000043
:1001700099230008992300080000000000000000F7
:100180009923000899230008992300080000000023
:1001900053B94AB9002908BF00281CBF4FF0FF31EE
:1001A0004FF0FF3000F00CB8ADF1080C6DE904CE53
:1001B00002F020F9DDF804E0DDE9022304B0704725
:1001C000704700BF0348044B834202D0034B03B186
:1001D00018477047100000201000002000000000A9
:1001E0000548064B1B1AD90F01EBA301491002D099
:1001F000034B03B118477047100000201000002087
:100200000000000010B5064C237843B9FFF7DAFF71
:10021000044B13B10448AFF300800123237010BDD9
:100220001000002000000000B026000808B5054BB3
:100230001BB105490548AFF30080BDE80840FFF752
:10024000CFBF00BF0000000014000020B02600084F
:1002500070B588B000240394049405940694079420
:100260001E4BDA6C42F00402DA64DA6C02F004022B
:100270000092009ADA6C42F00102DA64DA6C02F061
:1002800001020192019ADA6C42F00202DA64DB6C3C
:1002900003F002030293029B2246C0214FF09040DC
:1002A00001F0E2FC0E4E22460821304601F0DCFC53
:1002B000C0230393012504950594069503A94FF0E7
:1002C000904001F0F9FB08230393049505940694EC
:1002D00003A9304601F0F0FB08B070BD00100240E9
:1002E0000004004872B6FEE700B587B00023009313
:1002F000019302930393049305931848184A0260EC
:1003000043608360C36003610422426103764376E5
:100310000122C26180F820308362C36280F83030ED
:10032000436380F8383000F087F990B90D4B0093A3
:1003300006230193002302937F2203920422049256
:1003400005936946054800F05DFA20B907B05DF8ED
:1003500004FBFFF7C7FFFFF7C5FF00BFB400002095
:10036000000004500001802108B50B480B4B0360CE
:100370004FF4E133436000238360C36003610C22C8
:1003800042618361C3610362436201F0A2FF00B96D
:1003900008BDFFF7A7FF00BF2C000020004400406D
:1003A00000B597B04422002105A802F01BF80023F5
:1003B000009301930293039304934FF4007001F0B0
:1003C00069FC002831D101F055FC1B4AD2F890306D
:1003D00023F01803C2F890301423059301230793E8
:1003E0000B9300220C9260220D9202220F92109326
:1003F000119310231293072313931492159205A8B7
:1004000000F004FD98B90F23009303230193002308
:100410000293039304930121684601F02DF840B93B
:1004200001F042FB17B05DF804FBFFF75BFFFFF73D
:1004300059FFFFF757FF00BF0010024008B500F05A
:1004400021FCFFF7ADFFFFF703FFFFF74DFFFFF7BD
:100450008BFFFEE7FEE7FEE7FEE7FEE7FEE77047FD
:100460007047704708B500F01DFC08BD82B00A4B0C
:100470001A6E42F001021A661A6E02F00102009230
:10048000009A9A6D42F080529A659B6D03F08053FA
:100490000193019B02B070470010024010B59CB060
:1004A000044600211791189119911A911B91542219
:1004B00002A801F097FF22681E4B9A4201D01CB09F
:1004C00010BD4FF4804302934FF0805314930123E7
:1004D00003930493102305930723069302230793A2
:1004E00008934FF08073099302A801F069F9F0B9FD
:1004F000114BDA6C42F40052DA64DA6C02F4005206
:100500000092009ADA6C42F00102DA64DB6C03F0CC
:1005100001030193019B082317930B2318930023D6
:10052000199317A94FF0904001F0C6FAC7E7FFF7FB
:10053000D9FEDDE7000004500010024070B59CB009
:10054000044600211791189119911A911B91542278
:1005500002A801F047FF22681E4B9A4201D01CB04E
:1005600070BD0223029302A801F02AF900282ED1BF
:10057000194B9A6D42F400329A659A6D02F400327A
:100580000092009ADA6C42F00102DA64DB6C03F04C
:1005900001030193019B042317930226189600255B
:1005A000199503241A9407231B9317A94FF0904021
:1005B00001F082FA4FF400431793189619951A9494
:1005C0001B9417A94FF0904001F076FAC7E7FFF7A8
:1005D00089FECDE7004400400010024010B43030E6
:1005E0000B0A9B0003F00C03C45801F01F014FF0ED
:1005F0001F0C0CFA01FC24EA0C0CC2F384628A4042
:100600004CEA0202C2505DF8044B704710B414303B
:100610004B0E9B0003F00403C458C1F304514FF088
:10062000070C0CFA01FC24EA0C0C8A404CEA02028A
:10063000C2505DF8044B704730B583B0002301937E
:10064000002800F0D3800446436D13B323689A68F2
:1006500012F0005F05D09A6822F0204222F03F029B
:100660009A602268936813F0805F1FD1936823F02B
:10067000104323F03F0343F0805393605C4B1B68AF
:100680009B095C4AA2FB03239B0901335B00019396
:1006900009E0FFF703FF0023A36584F85030D5E796
:1006A000019B013B0193019B002BF9D122689368C8
:1006B00013F0805F71D1636D43F010036365A36D28
:1006C00043F00103A3650120936813F0040300D0F5
:1006D0000123616D11F0100F40F08180002B7ED15D
:1006E000636D23F4817343F002036365936813F031
:1006F000010F0BD1404B9B6813F0010F06D16368CB
:100700003E498A6822F47C1213438B60627E636BDD
:1007100043EA4233E2681343A268134394F820206B
:1007200043EA0243012A3AD0A26A22B102F470726B
:10073000E16A0A4313432168CD68314A2A401A43CB
:10074000CA602268936813F0080300D00123ABB994
:10075000237E94F83010490041EA8331D36823F4B2
:10076000804323F002030B43D36094F83830012B0D
:100770001AD02268136923F0010313612369012B46
:1007800024D02268136B23F00F031363636D23F0EF
:10079000030343F00103636526E0002094E7626AE7
:1007A000013A43EA4243BFE721680B6923F4FF6340
:1007B00023F00403E26B256C2A43656C2A43A56C85
:1007C0002A43134343F001030B61D7E721680B6B06
:1007D00023F00F03E269013A13430B63D6E7636D1D
:1007E00043F010036365012003B030BD0120FBE737
:1007F00008000020632D3E05000004500003045053
:1008000007C0F0FFF0B583B00023019390F850309B
:10081000012B00F0048204460D46012380F850307D
:100820000068836813F0040F09D0636D43F0200360
:1008300063650120002384F8503003B0F0BD49689F
:10084000052907D8023903294ED8DFE801F0024F05
:10085000484A0C212A68FFF7C1FE2068836813F01C
:10086000040300D00123826812F0080200D00122A4
:100870000BB9002A3CD02268936813F0010F17D1FE
:100880002B68E868D2F8B010C3F3120621EA06011B
:1008900000F0180CA84820FA0CF00340C3F3120330
:1008A0000B43C2F8B030EA68A44B9A4200F0A5802E
:1008B0002B68A34A134200F0AE81A24A926802F06C
:1008C000E070A1498B4200F05881A0498B4200F0B2
:1008D0007B819F498B4200F08B810020AAE7182181
:1008E000B8E74FF48071B5E70621B3E71221B1E70D
:1008F000AA682968FFF78AFE69692268D368C3F38A
:10090000C1035B009940286904280ED02E6860322C
:1009100052F820708F4B3B4006F0F84631430B43B2
:1009200043F0004342F82030A5E7136E116EC1F387
:1009300084612B68C3F3120080BBC3F384639942C4
:1009400034D021684B6E4A6EC2F384622B68C3F3C5
:10095000120080BBC3F384639A4234D021688B6E4B
:100960008A6EC2F384622B68C3F3120080BBC3F3A8
:1009700084639A4234D02168CB6ECA6EC2F384621B
:100980002B68C3F3120080BBC3F384639A427FF4E5
:1009900072AFCB6E23F00043CB666CE793FAA3F300
:1009A00013B1B3FA83F3CAE72023C8E7136E23F029
:1009B00000431366C5E793FAA3F313B1B3FA83F3C5
:1009C000CAE72023C8E74B6E23F000434B66C5E718
:1009D00093FAA3F313B1B3FA83F3CAE72023C8E76A
:1009E0008B6E23F000438B66C5E793FAA3F313B134
:1009F000B3FA83F3CAE72023C8E720682B68C3F360
:100A000012063EBB9A0E013202F01F02092A8CBF69
:100A100000220122002A55D05EBB990E01318906C1
:100A200001F0F8418EBB4FEA936C0CF1010C0CF015
:100A30001F0C012202FA0CF21143AEBB9B0E0133D4
:100A400003F01F0303EB43031B051943AA68FFF7D9
:100A5000DDFD2DE793FAA3F24AB1B2FA82F2013238
:100A600002F01F02092A8CBF00220122D2E72022B5
:100A7000F5E793FAA3F131B1B1FA81F101318906B9
:100A800001F0F841CEE72021F8E793FAA3F24AB14A
:100A9000B2FA82F2013202F01F024FF0010C0CFA9E
:100AA00002F2C9E72022F5E793FAA3F343B1B3FAC0
:100AB00083F3013303F01F0303EB43031B05C4E778
:100AC0002023F6E7E6B9990E0131890601F0F841D5
:100AD00016BB4FEA936C0CF1010C0CF01F0C0122B9
:100AE00002FA0CF21143BEBB9B0E013303F01F034D
:100AF00003EB43031E3B1B0543F000731943A5E7BB
:100B000093FAA3F131B1B1FA81F10131890601F013
:100B1000F841DDE72021F8E793FAA3F24AB1B2FAEF
:100B200082F2013202F01F024FF0010C0CFA02F2C5
:100B3000D8E72022F5E700BFFFFF070000007F4055
:100B40000000088000030450000052C7000084CB5E
:100B50000100008000F0FF0393FAA3F35BB1B3FA46
:100B600083F3013303F01F0303EB43031E3B1B0519
:100B700043F00073C2E72023F3E712F4000F7FF481
:100B8000A4AE2268274B9A4201D0002052E640F4DE
:100B9000000325498A6822F0E07213438B60234BDF
:100BA0001B689B09224AA2FB03239B09013303EB29
:100BB00043039B00019302E0019B013B0193019BD6
:100BC000002BF9D1002035E612F0807F7FF481AE52
:100BD0002268144B9A4201D000202BE640F080732B
:100BE00011498A6822F0E07213438B60002021E6ED
:100BF00012F4800F11D122680A4B9A4201D00020D2
:100C000018E640F4800308498A6822F0E072134332
:100C10008B6000200EE600200CE600200AE6022091
:100C20000BE600BF00000450000304500800002041
:100C3000632D3E05104B1B780BB90120704710B592
:100C400004464FF47A70B0FBF3F30C4A1068B0FB23
:100C5000F3F001F0BDF868B90F2C01D901200AE0CA
:100C6000002221464FF0FF3001F0A2F8044B1C6037
:100C7000002000E0012010BD00000020080000203E
:100C80000400002010B5032001F080F80020FFF7D9
:100C9000D1FF10B10124204610BD0446FFF7E6FB4A
:100CA000F9E70000034B1B78034A11680B441360FB
:100CB000704700BF0000002018010020014B186899
:100CC000704700BF1801002030B583B00446204BA8
:100CD0009B6D13F0805F0BD000F0D4FFB0F5007F68
:100CE00017D0802C1FD82DD0702C2DD000211BE0C8
:100CF000174DAB6D43F08053AB65AB6D03F0805384
:100D00000193019B00F0BEFFAB6D23F08053AB65F8
:100D1000E4E7802C03D9A02C03D9022104E00021B0
:100D200002E0012100E003210A4A136823F00703CF
:100D30000B431360136803F007038B4206D10020B6
:100D400003B030BD0221EFE70121EDE70120F7E715
:100D50000010024000200240284A9368D26802F046
:100D6000030213F00C030AD00C2B06D0042B1FD067
:100D7000082B20D00020024610E0012AF6D11F4A9D
:100D8000126812F0080F0CD11C4AD2F89420C2F35A
:100D900003221B4951F8222043B100200C2B0DD017
:100DA0007047164A1268C2F30312F2E71046F5E7DD
:100DB00014480022F2E714480022EFE70F4BDB68EB
:100DC00003F00303022B16D0032B00D10E4A0B496C
:100DD000CB68C3F302130133C868C0F3062002FBDB
:100DE00000F0B0FBF3F0CB68C3F3416301335B0069
:100DF000B0FBF3F0D4E7034AE9E700BF001002407C
:100E0000C82600080024F40000127A00002800F030
:100E10001C83F0B583B00446964B9D6805F00C0525
:100E2000DE6806F00306036813F0100F5AD0E5B130
:100E30000C2D18D0A369002B00F0BB808D4A1368DD
:100E400043F001031360FFF739FF0746894B1B6826
:100E500013F0020F40F09A80FFF730FFC01B02280A
:100E6000F4D90320FCE2012EE4D1824B1B6813F07D
:100E7000020F03D0A369002B00F0E982206A7D4BAA
:100E80001B6813F0080F5BD07A4B1B6803F0F0036C
:100E900098425CD8774B1A6842F008021A601A68C8
:100EA00022F0F002216A0A431A605A6822F47F4253
:100EB000E16942EA01225A60002D60D0FFF74CFF41
:100EC0006C4B9B68C3F303136B4AD35C03F01F03A3
:100ED000D8406A4B18606A4B1868FFF7ABFE0028D1
:100EE00040F0BE82236813F0010F00F08180082DCE
:100EF00075D00C2D71D06368B3F5803F00F09780FA
:100F0000B3F5A02F00F099805A4B1A6822F4803272
:100F10001A601A6822F480221A606368002B00F0BD
:100F20009980FFF7CBFE0746524B1B6813F4003F36
:100F30005ED1FFF7C3FEC01B6428F5D903208FE202
:100F40004C4BD3F894301B0903F0F003A0E7FFF7F4
:100F5000BBFE002840F07D82464B1A6842F0080232
:100F60001A601A6822F0F002216A0A431A605A686D
:100F700022F47F42E16942EA01225A609EE7206A38
:100F8000FFF7A2FE002899D0012069E2394B1A68C8
:100F900042F008021A601A6822F0F002216A0A433D
:100FA0001A605A6822F47F42E16942EA01225A60DB
:100FB00098E7304A136823F001031360FFF77EFEC1
:100FC00007462C4B1B6813F0020F8BD0FFF776FE01
:100FD000C01B0228F5D9032042E2032E8BD1254BFA
:100FE0001B6813F4003F03D06368002B00F03382CA
:100FF000236813F0020F58D0042D45D00C2D41D09A
:10100000E368002B77D01B4A136843F480731360A6
:10101000FFF754FE0646174B1B6813F4806F61D12F
:10102000FFF74CFE801B0228F5D9032018E2114A75
:10103000136843F4803313606FE703F18043A3F533
:101040003C331A6842F480221A601A6842F48032F3
:101050001A6062E7FFF732FE0746064B1B6813F47F
:10106000003FC5D0FFF72AFEC01B6428F5D9032036
:10107000F6E100BF00100240002700080800002031
:1010800004000020022EBBD1A44B1B6813F4806F18
:1010900003D0E368002B00F0E081A04A536823F0FE
:1010A000F853216943EA01635360236813F0080F82
:1010B0004CD063699BB3994AD2F8943043F0010352
:1010C000C2F89430FFF7FAFD0646944BD3F89430FB
:1010D00013F0020F3AD1FFF7F1FD801B0228F4D97B
:1010E0000320BDE18D4A536823F0F853216943EA98
:1010F00001635360D9E7894A136823F4807313604E
:10110000FFF7DCFD0646854B1B6813F4806FCCD0DF
:10111000FFF7D4FD801B0228F5D90320A0E17F4A08
:10112000D2F8943023F00103C2F89430FFF7C6FDE3
:1011300006467A4BD3F8943013F0020F06D0FFF72F
:10114000BDFD801B0228F4D9032089E1236813F038
:10115000040F7AD0714B9B6D13F0805F36D16F4BCB
:101160009A6D42F080529A659B6D03F08053019313
:10117000019B01266A4B1B6813F4807F28D0A3686B
:10118000012B39D0052B3FD0644BD3F8902022F0AF
:101190000102C3F89020D3F8902022F00402C3F893
:1011A0009020A368002B3DD0FFF788FD07465B4BDE
:1011B000D3F8903013F0020F46D1FFF77FFDC01B2C
:1011C00041F288339842F2D9032049E10026D1E761
:1011D000534A136843F480731360FFF76FFD0746AB
:1011E0004F4B1B6813F4807FC9D1FFF767FDC01B0D
:1011F0000228F5D9032033E1484AD2F8903043F071
:101200000103C2F89030CCE7444BD3F8902042F071
:101210000402C3F89020D3F8902042F00102C3F8F2
:101220009020BEE7FFF74AFD07463C4BD3F89030CD
:1012300013F0020F08D0FFF741FDC01B41F28833C5
:101240009842F2D903200BE1E6B9236813F0200F8E
:1012500035D0636AE3B1314AD2F8983043F00103E4
:10126000C2F89830FFF72AFD06462C4BD3F8983089
:1012700013F0020F23D1FFF721FD801B0228F4D9C0
:101280000320EDE0254A936D23F080539365DCE75E
:10129000224AD2F8983023F00103C2F89830FFF7C1
:1012A0000DFD06461D4BD3F8983013F0020F06D003
:1012B000FFF704FD801B0228F4D90320D0E0A36AC5
:1012C000002B00F0CC80022B17D00C2D00F0CC802E
:1012D000124A136823F080731360FFF7EFFC044693
:1012E0000E4B1B6813F0007F00F0A880FFF7E6FCB0
:1012F000001B0228F4D90320B2E0084BDB6803F09E
:101300000301E26A91420DD00C2D00F0AB80034B3B
:101310001B6813F0806F2FD00120A1E00010024065
:101320000070004003F07002216B0139B2EB011F25
:10133000EAD103F4FE42616BB2EB012FE4D103F07A
:101340007842A16BB2EBC16FDED103F4C001E26B56
:101350005208013AB1EB425FD6D103F0C063226C70
:101360005208013AB3EB426FCED1404B1B6813F0E9
:10137000007F49D0002073E03C4A136823F080735B
:101380001360FFF79BFC0546384B1B6813F0007F8A
:1013900006D0FFF793FC401B0228F5D903205FE03D
:1013A000324AD36832491940E36A206B013843EA74
:1013B0000013606B43EA0023E06B4008013843EA06
:1013C0004053206C4008013843EA4063A06B43EA75
:1013D000C0631943D160136843F080731360D3680E
:1013E00043F08073D360FFF769FC04461F4B1B6812
:1013F00013F0007F06D1FFF761FC001B0228F5D92E
:1014000003202DE000202BE0184B1A6842F0807278
:101410001A60DA6842F08072DA60FFF74FFC044627
:10142000124B1B6813F0007F06D1FFF747FC031B2C
:10143000022BF5D9032013E0002011E00B4AD168FC
:101440000C4B0B40D36000200AE0012070470120C4
:1014500006E0012004E0012002E0012000E000207D
:1014600003B0F0BD0120FBE70120F9E700100240C6
:101470008C809D01FCFFEEFE002800F0AF8070B56F
:101480000D460446594B1B6803F007038B420BD2F1
:10149000564A136823F007030B431360136803F0E5
:1014A00007038B4240F09C80236813F0020F0CD09E
:1014B000A2684F4B9B6803F0F0039A4205D94C4950
:1014C0008B6823F0F0031A438A60236813F0010F3E
:1014D00039D06368032B09D0022B26D063BB444A62
:1014E000126812F0020F06D1012076E0404A12681D
:1014F00012F0007F76D03E498A6822F0030213433F
:101500008B60FFF7DBFB0646394B9B6803F00C034F
:101510006268B3EB820F16D0FFF7D0FB801B41F25D
:1015200088339842F0D9032057E0314A126812F408
:10153000003FE0D1012050E02D4A126812F4806F84
:10154000D9D1012049E0236813F0020F0CD0A26822
:10155000274B9B6803F0F0039A4205D224498B681D
:1015600023F0F0031A438A60204B1B6803F0070343
:10157000AB420AD91D4A136823F007032B431360BB
:10158000136803F00703AB422ED1236813F0040F56
:1015900006D0174A936823F4E063E1680B43936035
:1015A000236813F0080F07D0114A936823F460539F
:1015B000216943EAC1039360FFF7CEFB0C4B9B68A4
:1015C000C3F303130B4AD35C03F01F03D8400A4B49
:1015D00018600A4B1868FFF72DFB70BD012070479B
:1015E0000120FAE70120F8E70120F6E70020024099
:1015F000001002400027000808000020040000201E
:10160000014B1868704700BF0800002008B5FFF7BD
:10161000F7FF054B9B68C3F30223044AD35C03F036
:101620001F03D84008BD00BF00100240F826000884
:1016300008B5FFF7E5FF054B9B68C3F3C223044AD7
:10164000D35C03F01F03D84008BD00BF0010024068
:10165000F8260008F8B504460D46584BDB6813F031
:10166000030F17D0554BDB6803F003030268934266
:1016700001D0012616E0002A00F09E804F4BDB6867
:10168000C3F3021301334268934201D0012609E0FB
:1016900000261BE00368022B57D0032B5CD0012BE4
:1016A00002D001263046F8BD444A126812F0020FFB
:1016B0005ED04248C26822F073026168013943EA91
:1016C00001131343C3600026002EEBD13B4A13687D
:1016D00023F080631360FFF7F1FA0746374B1B686E
:1016E00013F0006F05D0FFF7E9FAC31B022BF5D901
:1016F0000326002ED6D1002D3CD130490B6923F0B2
:10170000784323F4FE43A068E268D20642EA00224E
:1017100013430B61294A136843F080631360FFF79A
:10172000CDFA0546254B1B6813F0006F05D1FFF776
:10173000C5FA401B0228F5D90326002EB2D11F4A54
:101740001369A1690B431361ACE71C4A126812F4D8
:10175000806FAED10126A5E7184A126812F4003F47
:10176000A7D1164A126812F4802FA2D1012699E758
:101770000126A9E7012D0FD01048026922F0C062AE
:1017800022F4FE42A16863695B08013B5B0643EA01
:1017900001231A430261BDE70848026922F4C0022E
:1017A00022F4FE42A16823695B08013B5B0543EA22
:1017B00001231A430261ADE7012673E700100240DE
:1017C0002DE9F04182B00446036813F4006F25D080
:1017D000C36BB3F5000F06D0B3F5400F12D04BB179
:1017E000012637461CE0AE4AD36843F48033D36009
:1017F000002708E000210430FFF72CFF074610B156
:1018000006460DE00027A64AD2F8883023F44003AC
:10181000E16B0B43C2F88830002601E00026374612
:10182000236813F4003F6BD09D4B9B6D13F0805FDA
:101830004CD19B4B9A6D42F080529A659B6D03F0A0
:1018400080530193019B4FF00108964A136843F4BB
:1018500080731360FFF732FA0546924B1B6813F44E
:10186000807F05D1FFF72AFA401B0228F5D903270C
:10187000002F40D18A4BD3F8903013F4407315D029
:10188000226D9A4212D0864AD2F8903023F44073E7
:10189000D2F8901041F48031C2F89010D2F8901034
:1018A00021F48031C2F89010C2F8903013F0010F8B
:1018B0000FD1002F40F0C980794AD2F8903023F43C
:1018C0004073216D0B43C2F8903015E04FF00008D3
:1018D000BBE7FFF7F3F90546714BD3F8903013F0EF
:1018E000020FE6D1FFF7EAF9401B41F28833984234
:1018F000F2D90327DDE73E46B8F1000F40F0A7809C
:10190000236813F0010F08D0654AD2F8883023F01D
:101910000303216A0B43C2F88830236813F0020FD7
:1019200008D05F4AD2F8883023F00C03616A0B4379
:10193000C2F88830236813F0200F08D0584AD2F834
:10194000883023F44063A16A0B43C2F888302368CF
:1019500013F4007F08D0524AD2F8883023F4402391
:10196000616B0B43C2F88830236813F4806F08D092
:101970004B4AD2F8883023F44013A16B0B43C2F8D2
:101980008830236813F0400F08D0454AD2F88830D9
:1019900023F44053E16A0B43C2F88830236813F400
:1019A000807F08D03E4AD2F8883023F44033216B40
:1019B0000B43C2F88830236813F4005F0FD0384A15
:1019C000D2F8883023F04063216C0B43C2F8883092
:1019D000236CB3F1006F40D0B3F1806F42D0236825
:1019E00013F4802F0FD02E4AD2F8883023F04063B2
:1019F000616C0B43C2F88830636CB3F1006F39D06F
:101A0000B3F1806F3BD0236813F4804F0CD0244A8D
:101A1000D2F8883023F04053A16C0B43C2F88830D1
:101A2000A36CB3F1805F32D0236813F4004F08D069
:101A30001B4AD2F8883023F08043E16C0B43C2F894
:101A40008830304602B0BDE8F0813E4654E7144A83
:101A5000936D23F08053936552E7D36843F480136A
:101A6000D360BCE70121201DFFF7F4FD0028B6D0AC
:101A70000646B4E7D36843F48013D360C3E701217B
:101A8000201DFFF7E7FD0028BDD00646BBE7022179
:101A9000201DFFF7DFFD0028C6D00646C4E700BFC3
:101AA0000010024000700040024A136843F0040333
:101AB0001360704700100240F0B583B0002362E06D
:101AC00085685E000324B44025EA0405CC68B44070
:101AD0002C438460456825EA0C054C68C4F3001467
:101AE0009C402C4344605FE0DD08083550F82540F9
:101AF00003F0070C4FEA8C0C4FF00F0E0EFA0CFEA1
:101B000024EA0E0E0C6904FA0CF444EA0E0440F8C0
:101B1000254060E0022400E0002404FA0EF42C4387
:101B20000CF1020C4C4D45F82C404C4CA568D443AC
:101B300025EA02064F6817F4801F01D042EA050625
:101B4000464DAE60ED6804EA05064F6817F4001FC5
:101B500001D042EA0506414DEE606D6804EA0506D3
:101B60004F6817F4003F01D042EA05063B4D6E6016
:101B70002D682C404E6816F4803F01D042EA0504DF
:101B8000364A146001330A6832FA03F462D04FF027
:101B9000010C0CFA03FC1CEA0202F3D04C6804F0BE
:101BA0000304013C012C8BD94C6804F00304032C82
:101BB0000CD0C4685D004FF0030C0CFA05FC24EA5D
:101BC0000C0C8C68AC4044EA0C04C4604C6804F013
:101BD0000304022C88D004684FEA430E4FF0030C34
:101BE0000CFA0EFC24EA0C0C4C6804F0030404FA12
:101BF0000EF444EA0C0404604C6814F4403FC1D075
:101C0000174C256E45F001052566246E04F001048D
:101C10000194019C4FEA930C0CF102050E4C54F810
:101C2000255003F0030E4FEA8E0E0F2404FA0EF433
:101C300025EA0405B0F1904F3FF46EAF094CA04285
:101C400006D004F58064A0423FF464AF072464E743
:101C5000012462E703B0F0BD000001400004014030
:101C600000100240000400480AB18161704781629F
:101C700070470000024A136843F480731360704792
:101C800000700040024B186800F4C060704700BF4D
:101C900000700040B0F5007F0FD01F4B1B6803F4AD
:101CA000C063B3F5806F34D01B4A136823F4C0635C
:101CB00043F48063136000207047174B1B6803F4E4
:101CC000C063B3F5007F20D0134A136823F4C063C8
:101CD00043F400731360114B1B68322202FB03F3C1
:101CE0000F4AA2FB03239B0C013300E0013B0A4A8D
:101CF000526912F4806F01D0002BF7D1064B5B695B
:101D000013F4806F03D10020704700207047032038
:101D100070470020704700BF00700040080000209E
:101D200083DE1B43002808DB0901C9B200F16040D3
:101D300000F5614080F80013704700F00F000901C2
:101D4000C9B2014B1954704714ED00E000B500F022
:101D50000700C0F1070CBCF1040F28BF4FF0040CC2
:101D6000031D062B0FD9C31E4FF0FF3E0EFA0CF0D9
:101D700021EA000199400EFA03FE22EA0E0241EA2E
:101D800002005DF804FB0023EEE70000074AD36879
:101D900023F4E0631B041B0C000200F4E060034327
:101DA00043F0BF6343F40033D360704700ED00E0BD
:101DB00010B50446054BD868C0F30220FFF7C6FFF4
:101DC00001462046FFF7AEFF10BD00BF00ED00E06A
:101DD0000138B0F1807F0BD24FF0E0235861054A03
:101DE000F02182F823100020986107221A617047C1
:101DF0000120704700ED00E0026852E8003F23F444
:101E0000907342E800310029F6D1026802F108031C
:101E100053E8003F23F00103083242E80031002973
:101E2000F3D1036E012B06D02023C0F880300023AD
:101E3000036683667047026852E8003F23F0100390
:101E400042E800310029F6D1EEE7000010B5044663
:101E5000016883680269134342691343C2691343EB
:101E600008688C4A02401A430A602268536823F4C7
:101E70004053E1680B435360A1692268864B9A4244
:101E800001D0236A1943936823F430630B439360B2
:101E90002368824A93421CD0814A93422DD07E4AC5
:101EA000934243D010227C498B4260D0E069B0F568
:101EB000004F00F08C80082A00F2E580DFE812F085
:101EC000B400CA00B200E300CD00E300E300E30089
:101ED000D00002F55842D2F8882002F00302032A0B
:101EE00009D8DFE802F0020438060122DBE7042209
:101EF000D9E70822D7E71022D5E702F5E632D2F873
:101F0000882002F00C020C2A0ED8DFE802F0070D40
:101F10000D0D090D0D0D260D0D0D0B000022C2E754
:101F20000422C0E70822BEE71022BCE702F5C8324F
:101F3000D2F8882002F44062B2F5006F0FD005D8C5
:101F40007AB1B2F5806F0ED10422ACE7B2F5406FE2
:101F50000BD10822A7E70222A5E70222A3E702226B
:101F6000A1E700229FE710229DE710229BE7082AA5
:101F700079D8DFE802F008782A78277878780500A1
:101F80004FF4004003E0FFF741FB00286DD062688A
:101F900002EB420383426AD8B0EB023F69D8010EDC
:101FA00000025308C0184FF0000341F10001FEF792
:101FB000EFF8A0F540723B4B9A425CD82368D8609A
:101FC000002043E0FEF7C8FEDFE73748DFE7082AD6
:101FD00053D8DFE802F007210552245252520B0079
:101FE000314803E0FFF712FB002848D0626853082D
:101FF00003EB4003B3FBF2F3A3F110014FF6EF72D2
:1020000091423ED89AB222F00F02C3F34203134327
:102010002268D360002019E0FFF70AFBE4E7FEF72F
:102020009BFEE1E7204802E0FFF7F0FA68B363683F
:1020300000EB5300B0FBF3F0A0F110024FF6EF738A
:102040009A4224D8236880B2D86000200023A36677
:10205000E36610BDFFF7ECFAE8E7FEF77DFEE5E783
:102060004FF40040E3E70120F0E70020EEE7012015
:10207000ECE70120EAE70120E8E70120E6E700209D
:10208000E4E70120E2E70120E0E70020DEE70120AD
:10209000DCE700BFF369FFEF00800040003801403B
:1020A00000440040FFFC0F000024F400436A13F0DA
:1020B000080F06D00268536823F40043416B0B43BA
:1020C0005360436A13F0010F06D00268536823F48B
:1020D0000033816A0B435360436A13F0020F06D04A
:1020E0000268536823F48033C16A0B435360436A28
:1020F00013F0040F06D00268536823F48023016BA9
:102100000B435360436A13F0100F06D002689368C4
:1021100023F48053816B0B439360436A13F0200FC9
:1021200006D00268936823F40053C16B0B4393609D
:10213000436A13F0400F0AD00268536823F48013F7
:10214000016C0B435360036CB3F5801F0BD0436AE3
:1021500013F0800F06D00268536823F40023816CCB
:102160000B43536070470268536823F4C003416C0B
:102170000B435360EBE72DE9F84305460F4616463F
:102180009946DDF820802B68DC6937EA04040CBF2F
:1021900001240024B44232D1B8F1FF3FF3D0FEF75E
:1021A0008DFDA0EB090040452CD8B8F1000F2BD0D5
:1021B0002B681A6812F0040FE5D0DA6912F0080FE4
:1021C00011D1DA6912F4006FDDD04FF400621A62A7
:1021D0002846FFF711FE2023C5F88430002385F838
:1021E000783003200CE008241C622846FFF704FE28
:1021F000C5F88440002385F87830012000E00020F5
:10220000BDE8F8830320FBE70320F9E730B583B08E
:1022100004460023C0F88430FEF750FD05462268CE
:10222000126812F0080F0FD123681B6813F0040F17
:1022300026D12023E367C4F8803000202066606642
:1022400084F8780003B030BD6FF07E4300930346FE
:1022500000224FF400112046FFF78DFF0028E3D045
:10226000226852E8003F23F0800342E80031002951
:10227000F6D12023E367002384F878300320E1E7D8
:102280006FF07E4300932B4600224FF480012046DE
:10229000FFF771FF0028CCD0226852E8003F23F4FA
:1022A000907342E800310029F6D1226802F1080358
:1022B00053E8003F23F00103083242E800310029CF
:1022C000F3D12023C4F88030002384F87830032031
:1022D000B8E768B310B50446C36F03B32423E367BC
:1022E0002268136823F001031360636AE3B9204690
:1022F000FFF7ACFD012811D02268536823F4904306
:1023000053602268936823F02A039360226813685D
:1023100043F0010313602046FFF778FF10BD80F8FB
:102320007830FEF70BF9D9E72046FFF7BFFEDEE76E
:1023300001207047034AD2F8883043F47003C2F892
:102340008830704700ED00E0DFF834D0FFF7F2FF8F
:102350000C480D490D4A002302E0D458C450043300
:10236000C4188C42F9D30A4A0A4C002301E01360D6
:102370000432A242FBD300F011F8FEF75FF8FEE74B
:102380000000012000000020100000202827000885
:10239000100000201C010020FEE7000070B50D4D6C
:1023A0000D4C641BA4100026A64209D10B4D0C4C09
:1023B00000F07EF9641BA4100026A64205D170BD72
:1023C00055F8043B98470136EEE755F8043B98472B
:1023D0000136F2E718270008182700081827000818
:1023E0001C27000802440346934200D1704703F8BB
:1023F000011BF9E72DE9F047089D0C46002B4ED153
:1024000094468C458646B2FA82F262D94AB1C2F14C
:102410002003914020FA03F30CFA02FC194300FA5E
:1024200002FE4FEA1C471FFA8CF6B1FBF7F44FEAA5
:102430001E4307FB141143EA014304FB06F19942D2
:102440000AD91CEB030304F1FF3080F01381994299
:1024500040F21081023C6344591A1FFA8EF3B1FB1B
:10246000F7F007FB101143EA014300FB06F69E421A
:102470000AD91CEB030300F1FF3180F0FD809E427E
:1024800040F2FA80634402389B1B40EA044000217A
:102490001DB1D3400022C5E90032BDE8F0878B4270
:1024A00005D90DB1C5E9000100210846F5E7B3FAE9
:1024B00083F1002946D1A34202D39042C0F0F180BB
:1024C000861A64EB03030120002DE6D0C5E9006302
:1024D000E3E7002A40F09180A1EB0C044FEA1C488E
:1024E0001FFA8CF70121B4FBF8F64FEA1E4308FBF4
:1024F000164443EA044307FB06F0984208D91CEB54
:10250000030306F1FF3402D2984200F2CE80264641
:102510001C1A1FFA8EF3B4FBF8F008FB104443EAD0
:10252000044300FB07F79F4208D91CEB030300F1AB
:10253000FF3402D29F4200F2B1802046DB1B40EA0A
:102540000640A5E7C1F120068B4022FA06F71F439B
:1025500020FA06FC04FA01F343EA0C03F44000FA03
:1025600001F8380C4FEA1349B4FBF0FE1FFA87FC60
:1025700000FB1E4449EA04440EFB0CF9A14502FA93
:1025800001F20AD93C190EF1FF3A80F08580A1458D
:1025900040F28280AEF1020E3C44A4EB09041FFA23
:1025A00083F9B4FBF0F300FB134449EA044403FB52
:1025B0000CFCA44507D93C1903F1FF3068D2A445AF
:1025C00066D9023B3C4443EA0E40A0FB0293A4EBD5
:1025D0000C049C42CE469C4652D34FD055B1B8EB2A
:1025E0000E0364EB0C0404FA06F6CB40CC401E4309
:1025F000C5E900640021BDE8F087C2F1200320FA9C
:1026000003F10CFA02FC24FA03F394400C434FEA62
:102610001C4800FA02FE1FFA8CF7B3FBF8F008FB27
:102620001031230C43EA014300FB07F1994208D91A
:102630001CEB030300F1FF362CD299422AD9023851
:1026400063445B1AA4B2B3FBF8F108FB113344EA0C
:10265000034401FB07F3A34208D91CEB040401F176
:10266000FF3613D2A34211D902396444E41A41EA75
:10267000004138E70446EFE6084605E7C845ADD215
:10268000B9EB020E63EB070C0138A7E73146EDE723
:10269000034698E73046D4E7D6467EE763440238DF
:1026A0004CE70646234608460EE7023E63442FE702
:1026B000F8B500BFF8BC08BC9E467047F8B500BF2F
:0826C000F8BC08BC9E467047FF
:1026C800A0860100400D0300801A060000350C00AA
:1026D80040420F0080841E0000093D0000127A006D
:1026E8000024F40000366E010048E801006CDC02AA
:1026F80000000000010203040000000000000000C8
:082708000102030406070809A1
:08271000E4FCFF7F0100000062
:082718002D0200080000000082
:082720000502000800000000A2
:10272800010000001000000000093D00000000004A
:040000050800234983
:00000001FF
